{
  "contractName": "RentalPlatform",
  "abi": [
    {
      "inputs": [],
      "stateMutability": "nonpayable",
      "type": "constructor"
    },
    {
      "anonymous": false,
      "inputs": [
        {
          "indexed": true,
          "internalType": "uint256",
          "name": "id",
          "type": "uint256"
        }
      ],
      "name": "CarActivated",
      "type": "event"
    },
    {
      "anonymous": false,
      "inputs": [
        {
          "indexed": true,
          "internalType": "uint256",
          "name": "id",
          "type": "uint256"
        },
        {
          "indexed": false,
          "internalType": "string",
          "name": "name",
          "type": "string"
        },
        {
          "indexed": false,
          "internalType": "string",
          "name": "imgUrl",
          "type": "string"
        },
        {
          "indexed": false,
          "internalType": "uint256",
          "name": "rentFee",
          "type": "uint256"
        },
        {
          "indexed": false,
          "internalType": "uint256",
          "name": "saleFee",
          "type": "uint256"
        }
      ],
      "name": "CarAdded",
      "type": "event"
    },
    {
      "anonymous": false,
      "inputs": [
        {
          "indexed": true,
          "internalType": "uint256",
          "name": "id",
          "type": "uint256"
        }
      ],
      "name": "CarDeactivated",
      "type": "event"
    },
    {
      "anonymous": false,
      "inputs": [
        {
          "indexed": true,
          "internalType": "address",
          "name": "user",
          "type": "address"
        },
        {
          "indexed": true,
          "internalType": "uint256",
          "name": "carId",
          "type": "uint256"
        },
        {
          "indexed": false,
          "internalType": "uint256",
          "name": "startTimestamp",
          "type": "uint256"
        },
        {
          "indexed": false,
          "internalType": "uint256",
          "name": "endTimestamp",
          "type": "uint256"
        }
      ],
      "name": "CheckedIn",
      "type": "event"
    },
    {
      "anonymous": false,
      "inputs": [
        {
          "indexed": true,
          "internalType": "address",
          "name": "user",
          "type": "address"
        },
        {
          "indexed": true,
          "internalType": "uint256",
          "name": "carId",
          "type": "uint256"
        },
        {
          "indexed": false,
          "internalType": "uint256",
          "name": "timestamp",
          "type": "uint256"
        }
      ],
      "name": "CheckedOut",
      "type": "event"
    },
    {
      "anonymous": false,
      "inputs": [
        {
          "indexed": true,
          "internalType": "address",
          "name": "user",
          "type": "address"
        },
        {
          "indexed": false,
          "internalType": "uint256",
          "name": "amount",
          "type": "uint256"
        }
      ],
      "name": "PaymentMade",
      "type": "event"
    },
    {
      "anonymous": false,
      "inputs": [
        {
          "indexed": true,
          "internalType": "address",
          "name": "user",
          "type": "address"
        },
        {
          "indexed": false,
          "internalType": "string",
          "name": "name",
          "type": "string"
        },
        {
          "indexed": false,
          "internalType": "string",
          "name": "lastname",
          "type": "string"
        }
      ],
      "name": "UserAdded",
      "type": "event"
    },
    {
      "inputs": [
        {
          "internalType": "uint256",
          "name": "",
          "type": "uint256"
        }
      ],
      "name": "carIds",
      "outputs": [
        {
          "internalType": "uint256",
          "name": "",
          "type": "uint256"
        }
      ],
      "stateMutability": "view",
      "type": "function"
    },
    {
      "inputs": [
        {
          "internalType": "uint256",
          "name": "",
          "type": "uint256"
        }
      ],
      "name": "cars",
      "outputs": [
        {
          "internalType": "uint256",
          "name": "id",
          "type": "uint256"
        },
        {
          "internalType": "string",
          "name": "name",
          "type": "string"
        },
        {
          "internalType": "string",
          "name": "imgUrl",
          "type": "string"
        },
        {
          "internalType": "bool",
          "name": "availableForRent",
          "type": "bool"
        },
        {
          "internalType": "uint256",
          "name": "rentFee",
          "type": "uint256"
        },
        {
          "internalType": "uint256",
          "name": "saleFee",
          "type": "uint256"
        }
      ],
      "stateMutability": "view",
      "type": "function"
    },
    {
      "inputs": [
        {
          "internalType": "address",
          "name": "",
          "type": "address"
        }
      ],
      "name": "users",
      "outputs": [
        {
          "internalType": "address payable",
          "name": "walletAddress",
          "type": "address"
        },
        {
          "internalType": "string",
          "name": "name",
          "type": "string"
        },
        {
          "internalType": "string",
          "name": "lastname",
          "type": "string"
        },
        {
          "internalType": "uint256",
          "name": "rentedCarId",
          "type": "uint256"
        },
        {
          "internalType": "uint256",
          "name": "balance",
          "type": "uint256"
        },
        {
          "internalType": "uint256",
          "name": "debt",
          "type": "uint256"
        },
        {
          "internalType": "uint256",
          "name": "start",
          "type": "uint256"
        },
        {
          "internalType": "uint256",
          "name": "end",
          "type": "uint256"
        }
      ],
      "stateMutability": "view",
      "type": "function"
    },
    {
      "inputs": [
        {
          "internalType": "address payable",
          "name": "_newOwner",
          "type": "address"
        }
      ],
      "name": "setOwner",
      "outputs": [],
      "stateMutability": "nonpayable",
      "type": "function"
    },
    {
      "inputs": [],
      "name": "getOwner",
      "outputs": [
        {
          "internalType": "address",
          "name": "",
          "type": "address"
        }
      ],
      "stateMutability": "view",
      "type": "function"
    },
    {
      "inputs": [
        {
          "internalType": "address payable",
          "name": "walletAddress",
          "type": "address"
        }
      ],
      "name": "isUser",
      "outputs": [
        {
          "internalType": "bool",
          "name": "",
          "type": "bool"
        }
      ],
      "stateMutability": "view",
      "type": "function"
    },
    {
      "inputs": [
        {
          "internalType": "address payable",
          "name": "walletAddress",
          "type": "address"
        },
        {
          "internalType": "string",
          "name": "name",
          "type": "string"
        },
        {
          "internalType": "string",
          "name": "lastname",
          "type": "string"
        }
      ],
      "name": "addUser",
      "outputs": [],
      "stateMutability": "nonpayable",
      "type": "function"
    },
    {
      "inputs": [
        {
          "internalType": "address payable",
          "name": "walletAddress",
          "type": "address"
        }
      ],
      "name": "getUser",
      "outputs": [
        {
          "components": [
            {
              "internalType": "address payable",
              "name": "walletAddress",
              "type": "address"
            },
            {
              "internalType": "string",
              "name": "name",
              "type": "string"
            },
            {
              "internalType": "string",
              "name": "lastname",
              "type": "string"
            },
            {
              "internalType": "uint256",
              "name": "rentedCarId",
              "type": "uint256"
            },
            {
              "internalType": "uint256",
              "name": "balance",
              "type": "uint256"
            },
            {
              "internalType": "uint256",
              "name": "debt",
              "type": "uint256"
            },
            {
              "internalType": "uint256",
              "name": "start",
              "type": "uint256"
            },
            {
              "internalType": "uint256",
              "name": "end",
              "type": "uint256"
            }
          ],
          "internalType": "struct RentalPlatform.User",
          "name": "",
          "type": "tuple"
        }
      ],
      "stateMutability": "view",
      "type": "function"
    },
    {
      "inputs": [
        {
          "internalType": "uint256",
          "name": "id",
          "type": "uint256"
        },
        {
          "internalType": "string",
          "name": "name",
          "type": "string"
        },
        {
          "internalType": "string",
          "name": "url",
          "type": "string"
        },
        {
          "internalType": "uint256",
          "name": "rent",
          "type": "uint256"
        },
        {
          "internalType": "uint256",
          "name": "sale",
          "type": "uint256"
        }
      ],
      "name": "addCar",
      "outputs": [],
      "stateMutability": "nonpayable",
      "type": "function"
    },
    {
      "inputs": [
        {
          "internalType": "uint256",
          "name": "id",
          "type": "uint256"
        }
      ],
      "name": "activateCar",
      "outputs": [],
      "stateMutability": "nonpayable",
      "type": "function"
    },
    {
      "inputs": [
        {
          "internalType": "uint256",
          "name": "id",
          "type": "uint256"
        }
      ],
      "name": "deactivateCar",
      "outputs": [],
      "stateMutability": "nonpayable",
      "type": "function"
    },
    {
      "inputs": [
        {
          "internalType": "uint256",
          "name": "id",
          "type": "uint256"
        }
      ],
      "name": "isCarActive",
      "outputs": [
        {
          "internalType": "bool",
          "name": "",
          "type": "bool"
        }
      ],
      "stateMutability": "view",
      "type": "function"
    },
    {
      "inputs": [
        {
          "internalType": "address payable",
          "name": "walletAddress",
          "type": "address"
        }
      ],
      "name": "deposit",
      "outputs": [],
      "stateMutability": "payable",
      "type": "function"
    },
    {
      "inputs": [
        {
          "internalType": "address payable",
          "name": "walletAddress",
          "type": "address"
        },
        {
          "internalType": "uint256",
          "name": "id",
          "type": "uint256"
        }
      ],
      "name": "checkOut",
      "outputs": [],
      "stateMutability": "nonpayable",
      "type": "function"
    },
    {
      "inputs": [
        {
          "internalType": "address payable",
          "name": "walletAddress",
          "type": "address"
        }
      ],
      "name": "checkIn",
      "outputs": [],
      "stateMutability": "nonpayable",
      "type": "function"
    },
    {
      "inputs": [
        {
          "internalType": "address payable",
          "name": "walletAddress",
          "type": "address"
        }
      ],
      "name": "makePayment",
      "outputs": [],
      "stateMutability": "nonpayable",
      "type": "function"
    },
    {
      "inputs": [],
      "name": "getCarIds",
      "outputs": [
        {
          "internalType": "uint256[]",
          "name": "",
          "type": "uint256[]"
        }
      ],
      "stateMutability": "view",
      "type": "function"
    },
    {
      "inputs": [
        {
          "internalType": "uint256",
          "name": "id",
          "type": "uint256"
        }
      ],
      "name": "getCar",
      "outputs": [
        {
          "components": [
            {
              "internalType": "uint256",
              "name": "id",
              "type": "uint256"
            },
            {
              "internalType": "string",
              "name": "name",
              "type": "string"
            },
            {
              "internalType": "string",
              "name": "imgUrl",
              "type": "string"
            },
            {
              "internalType": "bool",
              "name": "availableForRent",
              "type": "bool"
            },
            {
              "internalType": "uint256",
              "name": "rentFee",
              "type": "uint256"
            },
            {
              "internalType": "uint256",
              "name": "saleFee",
              "type": "uint256"
            }
          ],
          "internalType": "struct RentalPlatform.Car",
          "name": "",
          "type": "tuple"
        }
      ],
      "stateMutability": "view",
      "type": "function"
    },
    {
      "inputs": [
        {
          "internalType": "address payable",
          "name": "walletAddress",
          "type": "address"
        }
      ],
      "name": "getUserDebt",
      "outputs": [
        {
          "internalType": "uint256",
          "name": "",
          "type": "uint256"
        }
      ],
      "stateMutability": "view",
      "type": "function"
    },
    {
      "inputs": [
        {
          "internalType": "address payable",
          "name": "walletAddress",
          "type": "address"
        }
      ],
      "name": "getUserBalance",
      "outputs": [
        {
          "internalType": "uint256",
          "name": "",
          "type": "uint256"
        }
      ],
      "stateMutability": "view",
      "type": "function"
    }
  ],
  "bytecode": "0x608060405234801561001057600080fd5b50336000806101000a81548173ffffffffffffffffffffffffffffffffffffffff021916908373ffffffffffffffffffffffffffffffffffffffff1602179055506131e7806100606000396000f3fe60806040526004361061011f5760003560e01c8063a87430ba116100a0578063df4799f311610064578063df4799f31461040e578063e65896c914610437578063f001c16f14610474578063f340fa01146104b1578063f7746e36146104cd5761011f565b8063a87430ba14610326578063bcd1cbcc1461036a578063ce99cd5514610393578063d7554a68146103bc578063d9a59e33146103e55761011f565b80635e8be190116100e75780635e8be190146102195780636f77926b14610256578063713f867214610293578063740c0f5c146102be578063893d20e8146102fb5761011f565b806313af4035146101245780632917630f1461014d578063300be4fc146101765780634209fff11461019f57806347734892146101dc575b600080fd5b34801561013057600080fd5b5061014b60048036038101906101469190612242565b61050f565b005b34801561015957600080fd5b50610174600480360381019061016f9190612367565b6105e0565b005b34801561018257600080fd5b5061019d60048036038101906101989190612242565b6107f3565b005b3480156101ab57600080fd5b506101c660048036038101906101c19190612242565b610a43565b6040516101d391906128fc565b60405180910390f35b3480156101e857600080fd5b5061020360048036038101906101fe9190612242565b610ade565b6040516102109190612b45565b60405180910390f35b34801561022557600080fd5b50610240600480360381019061023b919061233a565b610b72565b60405161024d9190612b01565b60405180910390f35b34801561026257600080fd5b5061027d60048036038101906102789190612242565b610d56565b60405161028a9190612b23565b60405180910390f35b34801561029f57600080fd5b506102a8610fa4565b6040516102b591906128da565b60405180910390f35b3480156102ca57600080fd5b506102e560048036038101906102e0919061233a565b610ffc565b6040516102f29190612b45565b60405180910390f35b34801561030757600080fd5b50610310611020565b60405161031d9190612833565b60405180910390f35b34801561033257600080fd5b5061034d60048036038101906103489190612215565b611049565b60405161036198979695949392919061284e565b60405180910390f35b34801561037657600080fd5b50610391600480360381019061038c919061233a565b6111c1565b005b34801561039f57600080fd5b506103ba60048036038101906103b5919061233a565b611308565b005b3480156103c857600080fd5b506103e360048036038101906103de919061226f565b61144f565b005b3480156103f157600080fd5b5061040c60048036038101906104079190612242565b611637565b005b34801561041a57600080fd5b50610435600480360381019061043091906122fa565b611956565b005b34801561044357600080fd5b5061045e60048036038101906104599190612242565b611c00565b60405161046b9190612b45565b60405180910390f35b34801561048057600080fd5b5061049b6004803603810190610496919061233a565b611c94565b6040516104a891906128fc565b60405180910390f35b6104cb60048036038101906104c69190612242565b611d1a565b005b3480156104d957600080fd5b506104f460048036038101906104ef919061233a565b611dbe565b60405161050696959493929190612b60565b60405180910390f35b60008054906101000a900473ffffffffffffffffffffffffffffffffffffffff1673ffffffffffffffffffffffffffffffffffffffff163373ffffffffffffffffffffffffffffffffffffffff161461059d576040517f08c379a000000000000000000000000000000000000000000000000000000000815260040161059490612ac1565b60405180910390fd5b806000806101000a81548173ffffffffffffffffffffffffffffffffffffffff021916908373ffffffffffffffffffffffffffffffffffffffff16021790555050565b60008054906101000a900473ffffffffffffffffffffffffffffffffffffffff1673ffffffffffffffffffffffffffffffffffffffff163373ffffffffffffffffffffffffffffffffffffffff161461066e576040517f08c379a000000000000000000000000000000000000000000000000000000000815260040161066590612ac1565b60405180910390fd5b60006002600087815260200190815260200160002060000154146106c7576040517f08c379a00000000000000000000000000000000000000000000000000000000081526004016106be90612a01565b60405180910390fd5b6040518060c001604052808681526020018581526020018481526020016001151581526020018381526020018281525060026000878152602001908152602001600020600082015181600001556020820151816001019080519060200190610730929190612030565b50604082015181600201908051906020019061074d929190612030565b5060608201518160030160006101000a81548160ff0219169083151502179055506080820151816004015560a082015181600501559050506003859080600181540180825580915050600190039060005260206000200160009091909190915055847f1d26cfb076fd58c1fa5695bb34e5556995a0aa34ecc601438f9957d6a71439a3858585856040516107e4949392919061294e565b60405180910390a25050505050565b6107fc81610a43565b61083b576040517f08c379a000000000000000000000000000000000000000000000000000000000815260040161083290612a81565b60405180910390fd5b6000600160008373ffffffffffffffffffffffffffffffffffffffff1673ffffffffffffffffffffffffffffffffffffffff1681526020019081526020016000206005015490506000600160008473ffffffffffffffffffffffffffffffffffffffff1673ffffffffffffffffffffffffffffffffffffffff1681526020019081526020016000206004015490506000821161090c576040517f08c379a000000000000000000000000000000000000000000000000000000000815260040161090390612a21565b60405180910390fd5b8181101561094f576040517f08c379a000000000000000000000000000000000000000000000000000000000815260040161094690612ae1565b60405180910390fd5b81600160008573ffffffffffffffffffffffffffffffffffffffff1673ffffffffffffffffffffffffffffffffffffffff16815260200190815260200160002060040160008282546109a19190612d95565b925050819055506000600160008573ffffffffffffffffffffffffffffffffffffffff1673ffffffffffffffffffffffffffffffffffffffff168152602001908152602001600020600501819055508273ffffffffffffffffffffffffffffffffffffffff167f3a2d0e41c506b136330c6e5e0295ccbf0966daece99bfe7c89020cc01dbfb8d683604051610a369190612b45565b60405180910390a2505050565b60008073ffffffffffffffffffffffffffffffffffffffff16600160008473ffffffffffffffffffffffffffffffffffffffff1673ffffffffffffffffffffffffffffffffffffffff16815260200190815260200160002060000160009054906101000a900473ffffffffffffffffffffffffffffffffffffffff1673ffffffffffffffffffffffffffffffffffffffff1614159050919050565b6000610ae982610a43565b610b28576040517f08c379a0000000000000000000000000000000000000000000000000000000008152600401610b1f90612a81565b60405180910390fd5b600160008373ffffffffffffffffffffffffffffffffffffffff1673ffffffffffffffffffffffffffffffffffffffff168152602001908152602001600020600401549050919050565b610b7a6120b6565b600060026000848152602001908152602001600020600001541415610bd4576040517f08c379a0000000000000000000000000000000000000000000000000000000008152600401610bcb90612a61565b60405180910390fd5b600260008381526020019081526020016000206040518060c001604052908160008201548152602001600182018054610c0c90612e65565b80601f0160208091040260200160405190810160405280929190818152602001828054610c3890612e65565b8015610c855780601f10610c5a57610100808354040283529160200191610c85565b820191906000526020600020905b815481529060010190602001808311610c6857829003601f168201915b50505050508152602001600282018054610c9e90612e65565b80601f0160208091040260200160405190810160405280929190818152602001828054610cca90612e65565b8015610d175780601f10610cec57610100808354040283529160200191610d17565b820191906000526020600020905b815481529060010190602001808311610cfa57829003601f168201915b505050505081526020016003820160009054906101000a900460ff16151515158152602001600482015481526020016005820154815250509050919050565b610d5e6120ee565b610d6782610a43565b610da6576040517f08c379a0000000000000000000000000000000000000000000000000000000008152600401610d9d90612a81565b60405180910390fd5b600160008373ffffffffffffffffffffffffffffffffffffffff1673ffffffffffffffffffffffffffffffffffffffff168152602001908152602001600020604051806101000160405290816000820160009054906101000a900473ffffffffffffffffffffffffffffffffffffffff1673ffffffffffffffffffffffffffffffffffffffff1673ffffffffffffffffffffffffffffffffffffffff168152602001600182018054610e5790612e65565b80601f0160208091040260200160405190810160405280929190818152602001828054610e8390612e65565b8015610ed05780601f10610ea557610100808354040283529160200191610ed0565b820191906000526020600020905b815481529060010190602001808311610eb357829003601f168201915b50505050508152602001600282018054610ee990612e65565b80601f0160208091040260200160405190810160405280929190818152602001828054610f1590612e65565b8015610f625780601f10610f3757610100808354040283529160200191610f62565b820191906000526020600020905b815481529060010190602001808311610f4557829003601f168201915b50505050508152602001600382015481526020016004820154815260200160058201548152602001600682015481526020016007820154815250509050919050565b60606003805480602002602001604051908101604052809291908181526020018280548015610ff257602002820191906000526020600020905b815481526020019060010190808311610fde575b5050505050905090565b6003818154811061100c57600080fd5b906000526020600020016000915090505481565b60008060009054906101000a900473ffffffffffffffffffffffffffffffffffffffff16905090565b60016020528060005260406000206000915090508060000160009054906101000a900473ffffffffffffffffffffffffffffffffffffffff169080600101805461109290612e65565b80601f01602080910402602001604051908101604052809291908181526020018280546110be90612e65565b801561110b5780601f106110e05761010080835404028352916020019161110b565b820191906000526020600020905b8154815290600101906020018083116110ee57829003601f168201915b50505050509080600201805461112090612e65565b80601f016020809104026020016040519081016040528092919081815260200182805461114c90612e65565b80156111995780601f1061116e57610100808354040283529160200191611199565b820191906000526020600020905b81548152906001019060200180831161117c57829003601f168201915b5050505050908060030154908060040154908060050154908060060154908060070154905088565b60008054906101000a900473ffffffffffffffffffffffffffffffffffffffff1673ffffffffffffffffffffffffffffffffffffffff163373ffffffffffffffffffffffffffffffffffffffff161461124f576040517f08c379a000000000000000000000000000000000000000000000000000000000815260040161124690612ac1565b60405180910390fd5b6000600260008381526020019081526020016000206000015414156112a9576040517f08c379a00000000000000000000000000000000000000000000000000000000081526004016112a090612a61565b60405180910390fd5b60016002600083815260200190815260200160002060030160006101000a81548160ff021916908315150217905550807f4fe28687ec34a72777c5d8d3d5a20053642305ff3aef5ad1a530b859dfae009f60405160405180910390a250565b60008054906101000a900473ffffffffffffffffffffffffffffffffffffffff1673ffffffffffffffffffffffffffffffffffffffff163373ffffffffffffffffffffffffffffffffffffffff1614611396576040517f08c379a000000000000000000000000000000000000000000000000000000000815260040161138d90612ac1565b60405180910390fd5b6000600260008381526020019081526020016000206000015414156113f0576040517f08c379a00000000000000000000000000000000000000000000000000000000081526004016113e790612a61565b60405180910390fd5b60006002600083815260200190815260200160002060030160006101000a81548160ff021916908315150217905550807f912b049eaaaadc0526b21ba916e34c38696373a47930ed4baecef5d447e3cdea60405160405180910390a250565b61145883610a43565b15611498576040517f08c379a000000000000000000000000000000000000000000000000000000000815260040161148f906129e1565b60405180910390fd5b6040518061010001604052808473ffffffffffffffffffffffffffffffffffffffff168152602001838152602001828152602001600081526020016000815260200160008152602001600081526020016000815250600160008573ffffffffffffffffffffffffffffffffffffffff1673ffffffffffffffffffffffffffffffffffffffff16815260200190815260200160002060008201518160000160006101000a81548173ffffffffffffffffffffffffffffffffffffffff021916908373ffffffffffffffffffffffffffffffffffffffff160217905550602082015181600101908051906020019061158f929190612030565b5060408201518160020190805190602001906115ac929190612030565b50606082015181600301556080820151816004015560a0820151816005015560c0820151816006015560e082015181600701559050508273ffffffffffffffffffffffffffffffffffffffff167f8eab1db142a914aff8b515eedb9177bd7effaef6d714c41e30bdf15206778607838360405161162a929190612917565b60405180910390a2505050565b61164081610a43565b61167f576040517f08c379a000000000000000000000000000000000000000000000000000000000815260040161167690612a81565b60405180910390fd5b6000600160008373ffffffffffffffffffffffffffffffffffffffff1673ffffffffffffffffffffffffffffffffffffffff168152602001908152602001600020600301549050600081141561170a576040517f08c379a000000000000000000000000000000000000000000000000000000000815260040161170190612aa1565b60405180910390fd5b42600160008473ffffffffffffffffffffffffffffffffffffffff1673ffffffffffffffffffffffffffffffffffffffff1681526020019081526020016000206007018190555061175a82611f17565b600160008473ffffffffffffffffffffffffffffffffffffffff1673ffffffffffffffffffffffffffffffffffffffff16815260200190815260200160002060050160008282546117ab9190612cb4565b925050819055506000600160008473ffffffffffffffffffffffffffffffffffffffff1673ffffffffffffffffffffffffffffffffffffffff168152602001908152602001600020600301819055506000600160008473ffffffffffffffffffffffffffffffffffffffff1673ffffffffffffffffffffffffffffffffffffffff1681526020019081526020016000206006015490506000600160008573ffffffffffffffffffffffffffffffffffffffff1673ffffffffffffffffffffffffffffffffffffffff168152602001908152602001600020600601819055506000600160008573ffffffffffffffffffffffffffffffffffffffff1673ffffffffffffffffffffffffffffffffffffffff1681526020019081526020016000206007018190555060016002600084815260200190815260200160002060030160006101000a81548160ff021916908315150217905550818373ffffffffffffffffffffffffffffffffffffffff167f7e4c1be4a7f9736334ae1a21a54b75fe0b8ac49d1c72b89a21ec4802d4f6fabb8342604051611949929190612bcf565b60405180910390a3505050565b61195f82610a43565b61199e576040517f08c379a000000000000000000000000000000000000000000000000000000000815260040161199590612a81565b60405180910390fd5b6119a781611c94565b6119e6576040517f08c379a00000000000000000000000000000000000000000000000000000000081526004016119dd90612a41565b60405180910390fd5b6000600160008473ffffffffffffffffffffffffffffffffffffffff1673ffffffffffffffffffffffffffffffffffffffff1681526020019081526020016000206003015414611a6b576040517f08c379a0000000000000000000000000000000000000000000000000000000008152600401611a62906129a1565b60405180910390fd5b6000600160008473ffffffffffffffffffffffffffffffffffffffff1673ffffffffffffffffffffffffffffffffffffffff1681526020019081526020016000206005015414611af0576040517f08c379a0000000000000000000000000000000000000000000000000000000008152600401611ae7906129c1565b60405180910390fd5b80600160008473ffffffffffffffffffffffffffffffffffffffff1673ffffffffffffffffffffffffffffffffffffffff1681526020019081526020016000206003018190555042600160008473ffffffffffffffffffffffffffffffffffffffff1673ffffffffffffffffffffffffffffffffffffffff1681526020019081526020016000206006018190555060006002600083815260200190815260200160002060030160006101000a81548160ff021916908315150217905550808273ffffffffffffffffffffffffffffffffffffffff167f21c3a29faec2af0d716e792eacc877f979d8920b2075d1f9099b87df5137736642604051611bf49190612b45565b60405180910390a35050565b6000611c0b82610a43565b611c4a576040517f08c379a0000000000000000000000000000000000000000000000000000000008152600401611c4190612a81565b60405180910390fd5b600160008373ffffffffffffffffffffffffffffffffffffffff1673ffffffffffffffffffffffffffffffffffffffff168152602001908152602001600020600501549050919050565b60008060026000848152602001908152602001600020600001541415611cef576040517f08c379a0000000000000000000000000000000000000000000000000000000008152600401611ce690612a61565b60405180910390fd5b6002600083815260200190815260200160002060030160009054906101000a900460ff169050919050565b611d2381610a43565b611d62576040517f08c379a0000000000000000000000000000000000000000000000000000000008152600401611d5990612a81565b60405180910390fd5b34600160008373ffffffffffffffffffffffffffffffffffffffff1673ffffffffffffffffffffffffffffffffffffffff1681526020019081526020016000206004016000828254611db49190612cb4565b9250508190555050565b6002602052806000526040600020600091509050806000015490806001018054611de790612e65565b80601f0160208091040260200160405190810160405280929190818152602001828054611e1390612e65565b8015611e605780601f10611e3557610100808354040283529160200191611e60565b820191906000526020600020905b815481529060010190602001808311611e4357829003601f168201915b505050505090806002018054611e7590612e65565b80601f0160208091040260200160405190810160405280929190818152602001828054611ea190612e65565b8015611eee5780601f10611ec357610100808354040283529160200191611eee565b820191906000526020600020905b815481529060010190602001808311611ed157829003601f168201915b5050505050908060030160009054906101000a900460ff16908060040154908060050154905086565b600080600160008473ffffffffffffffffffffffffffffffffffffffff1673ffffffffffffffffffffffffffffffffffffffff1681526020019081526020016000206003015490506000600260008381526020019081526020016000206004015490506000603c600160008773ffffffffffffffffffffffffffffffffffffffff1673ffffffffffffffffffffffffffffffffffffffff16815260200190815260200160002060060154600160008873ffffffffffffffffffffffffffffffffffffffff1673ffffffffffffffffffffffffffffffffffffffff1681526020019081526020016000206007015461200e9190612d95565b6120189190612d0a565b905081816120269190612d3b565b9350505050919050565b82805461203c90612e65565b90600052602060002090601f01602090048101928261205e57600085556120a5565b82601f1061207757805160ff19168380011785556120a5565b828001600101855582156120a5579182015b828111156120a4578251825591602001919060010190612089565b5b5090506120b29190612149565b5090565b6040518060c0016040528060008152602001606081526020016060815260200160001515815260200160008152602001600081525090565b604051806101000160405280600073ffffffffffffffffffffffffffffffffffffffff168152602001606081526020016060815260200160008152602001600081526020016000815260200160008152602001600081525090565b5b8082111561216257600081600090555060010161214a565b5090565b600061217961217484612c1d565b612bf8565b90508281526020810184848401111561219557612194612f89565b5b6121a0848285612e23565b509392505050565b6000813590506121b78161316c565b92915050565b6000813590506121cc81613183565b92915050565b600082601f8301126121e7576121e6612f84565b5b81356121f7848260208601612166565b91505092915050565b60008135905061220f8161319a565b92915050565b60006020828403121561222b5761222a612f93565b5b6000612239848285016121a8565b91505092915050565b60006020828403121561225857612257612f93565b5b6000612266848285016121bd565b91505092915050565b60008060006060848603121561228857612287612f93565b5b6000612296868287016121bd565b935050602084013567ffffffffffffffff8111156122b7576122b6612f8e565b5b6122c3868287016121d2565b925050604084013567ffffffffffffffff8111156122e4576122e3612f8e565b5b6122f0868287016121d2565b9150509250925092565b6000806040838503121561231157612310612f93565b5b600061231f858286016121bd565b925050602061233085828601612200565b9150509250929050565b6000602082840312156123505761234f612f93565b5b600061235e84828501612200565b91505092915050565b600080600080600060a0868803121561238357612382612f93565b5b600061239188828901612200565b955050602086013567ffffffffffffffff8111156123b2576123b1612f8e565b5b6123be888289016121d2565b945050604086013567ffffffffffffffff8111156123df576123de612f8e565b5b6123eb888289016121d2565b93505060606123fc88828901612200565b925050608061240d88828901612200565b9150509295509295909350565b60006124268383612815565b60208301905092915050565b61243b81612ddb565b82525050565b61244a81612ddb565b82525050565b61245981612dc9565b82525050565b600061246a82612c5e565b6124748185612c81565b935061247f83612c4e565b8060005b838110156124b0578151612497888261241a565b97506124a283612c74565b925050600181019050612483565b5085935050505092915050565b6124c681612ded565b82525050565b6124d581612ded565b82525050565b60006124e682612c69565b6124f08185612c92565b9350612500818560208601612e32565b61250981612f98565b840191505092915050565b600061251f82612c69565b6125298185612ca3565b9350612539818560208601612e32565b61254281612f98565b840191505092915050565b600061255a601e83612ca3565b915061256582612fa9565b602082019050919050565b600061257d601d83612ca3565b915061258882612fd2565b602082019050919050565b60006125a0601483612ca3565b91506125ab82612ffb565b602082019050919050565b60006125c3602083612ca3565b91506125ce82613024565b602082019050919050565b60006125e6601183612ca3565b91506125f18261304d565b602082019050919050565b6000612609601e83612ca3565b915061261482613076565b602082019050919050565b600061262c601383612ca3565b91506126378261309f565b602082019050919050565b600061264f601483612ca3565b915061265a826130c8565b602082019050919050565b6000612672601a83612ca3565b915061267d826130f1565b602082019050919050565b6000612695601383612ca3565b91506126a08261311a565b602082019050919050565b60006126b8601e83612ca3565b91506126c382613143565b602082019050919050565b600060c0830160008301516126e66000860182612815565b50602083015184820360208601526126fe82826124db565b9150506040830151848203604086015261271882826124db565b915050606083015161272d60608601826124bd565b5060808301516127406080860182612815565b5060a083015161275360a0860182612815565b508091505092915050565b6000610100830160008301516127776000860182612432565b506020830151848203602086015261278f82826124db565b915050604083015184820360408601526127a982826124db565b91505060608301516127be6060860182612815565b5060808301516127d16080860182612815565b5060a08301516127e460a0860182612815565b5060c08301516127f760c0860182612815565b5060e083015161280a60e0860182612815565b508091505092915050565b61281e81612e19565b82525050565b61282d81612e19565b82525050565b60006020820190506128486000830184612450565b92915050565b600061010082019050612864600083018b612441565b8181036020830152612876818a612514565b9050818103604083015261288a8189612514565b90506128996060830188612824565b6128a66080830187612824565b6128b360a0830186612824565b6128c060c0830185612824565b6128cd60e0830184612824565b9998505050505050505050565b600060208201905081810360008301526128f4818461245f565b905092915050565b600060208201905061291160008301846124cc565b92915050565b600060408201905081810360008301526129318185612514565b905081810360208301526129458184612514565b90509392505050565b600060808201905081810360008301526129688187612514565b9050818103602083015261297c8186612514565b905061298b6040830185612824565b6129986060830184612824565b95945050505050565b600060208201905081810360008301526129ba8161254d565b9050919050565b600060208201905081810360008301526129da81612570565b9050919050565b600060208201905081810360008301526129fa81612593565b9050919050565b60006020820190508181036000830152612a1a816125b6565b9050919050565b60006020820190508181036000830152612a3a816125d9565b9050919050565b60006020820190508181036000830152612a5a816125fc565b9050919050565b60006020820190508181036000830152612a7a8161261f565b9050919050565b60006020820190508181036000830152612a9a81612642565b9050919050565b60006020820190508181036000830152612aba81612665565b9050919050565b60006020820190508181036000830152612ada81612688565b9050919050565b60006020820190508181036000830152612afa816126ab565b9050919050565b60006020820190508181036000830152612b1b81846126ce565b905092915050565b60006020820190508181036000830152612b3d818461275e565b905092915050565b6000602082019050612b5a6000830184612824565b92915050565b600060c082019050612b756000830189612824565b8181036020830152612b878188612514565b90508181036040830152612b9b8187612514565b9050612baa60608301866124cc565b612bb76080830185612824565b612bc460a0830184612824565b979650505050505050565b6000604082019050612be46000830185612824565b612bf16020830184612824565b9392505050565b6000612c02612c13565b9050612c0e8282612e97565b919050565b6000604051905090565b600067ffffffffffffffff821115612c3857612c37612f55565b5b612c4182612f98565b9050602081019050919050565b6000819050602082019050919050565b600081519050919050565b600081519050919050565b6000602082019050919050565b600082825260208201905092915050565b600082825260208201905092915050565b600082825260208201905092915050565b6000612cbf82612e19565b9150612cca83612e19565b9250827fffffffffffffffffffffffffffffffffffffffffffffffffffffffffffffffff03821115612cff57612cfe612ec8565b5b828201905092915050565b6000612d1582612e19565b9150612d2083612e19565b925082612d3057612d2f612ef7565b5b828204905092915050565b6000612d4682612e19565b9150612d5183612e19565b9250817fffffffffffffffffffffffffffffffffffffffffffffffffffffffffffffffff0483118215151615612d8a57612d89612ec8565b5b828202905092915050565b6000612da082612e19565b9150612dab83612e19565b925082821015612dbe57612dbd612ec8565b5b828203905092915050565b6000612dd482612df9565b9050919050565b6000612de682612df9565b9050919050565b60008115159050919050565b600073ffffffffffffffffffffffffffffffffffffffff82169050919050565b6000819050919050565b82818337600083830152505050565b60005b83811015612e50578082015181840152602081019050612e35565b83811115612e5f576000848401525b50505050565b60006002820490506001821680612e7d57607f821691505b60208210811415612e9157612e90612f26565b5b50919050565b612ea082612f98565b810181811067ffffffffffffffff82111715612ebf57612ebe612f55565b5b80604052505050565b7f4e487b7100000000000000000000000000000000000000000000000000000000600052601160045260246000fd5b7f4e487b7100000000000000000000000000000000000000000000000000000000600052601260045260246000fd5b7f4e487b7100000000000000000000000000000000000000000000000000000000600052602260045260246000fd5b7f4e487b7100000000000000000000000000000000000000000000000000000000600052604160045260246000fd5b600080fd5b600080fd5b600080fd5b600080fd5b6000601f19601f8301169050919050565b7f557365722068617320616c72656164792072656e746564206120636172210000600082015250565b7f557365722068617320616e206f75747374616e64696e67206465627421000000600082015250565b7f5573657220616c72656164792065786973747321000000000000000000000000600082015250565b7f4361722077697468207468697320696420616c72656164792065786973747321600082015250565b7f5573657220686173206e6f206465627421000000000000000000000000000000600082015250565b7f436172206973206e6f7420617661696c61626c6520666f722072656e74210000600082015250565b7f43617220646f6573206e6f742065786973742100000000000000000000000000600082015250565b7f5573657220646f6573206e6f7420657869737421000000000000000000000000600082015250565b7f5573657220686173206e6f742072656e74656420612063617221000000000000600082015250565b7f4f6e6c79206f776e657220726571756972656400000000000000000000000000600082015250565b7f557365722068617320696e73756666696369656e742062616c616e6365210000600082015250565b61317581612dc9565b811461318057600080fd5b50565b61318c81612ddb565b811461319757600080fd5b50565b6131a381612e19565b81146131ae57600080fd5b5056fea2646970667358221220cb087c71535c2bb93d1eb291d106e11d77cd02db371a109ef3bacc549d0a049e64736f6c63430008070033",
  "immutableReferences": {},
  "source": "// SPDX-License-Identifier: MIT\r\n\r\npragma solidity ^0.8.7;\r\n\r\ncontract RentalPlatform {\r\n    event UserAdded(address indexed user, string name, string lastname);\r\n    event CarAdded(uint indexed id, string name, string imgUrl, uint rentFee, uint saleFee);\r\n    event CarActivated(uint indexed id);\r\n    event CarDeactivated(uint indexed id);\r\n    event CheckedOut(address indexed user, uint indexed carId, uint timestamp);\r\n    event CheckedIn(address indexed user, uint indexed carId, uint startTimestamp, uint endTimestamp);\r\n    event PaymentMade(address indexed user, uint amount);\r\n\r\n\r\n    address private owner;\r\n\r\n    struct User {\r\n        address payable walletAddress;\r\n        string name;\r\n        string lastname;\r\n        uint rentedCarId;\r\n        uint balance;\r\n        uint debt;\r\n        uint start;\r\n        uint end;\r\n    }\r\n\r\n    struct Car {\r\n        uint id;\r\n        string name;\r\n        string imgUrl;\r\n        bool availableForRent;\r\n        uint rentFee; // for every minute\r\n        uint saleFee;\r\n    }\r\n\r\n    mapping(address => User) public users;\r\n    mapping(uint => Car) public cars;\r\n    uint[] public carIds;\r\n\r\n    constructor() {\r\n        owner = msg.sender;\r\n    }\r\n\r\n    modifier onlyOwner() {\r\n        require(msg.sender == owner, \"Only owner required\");\r\n        _;\r\n    }\r\n\r\n    function setOwner(address payable _newOwner) external onlyOwner{\r\n        owner = _newOwner;\r\n    }\r\n\r\n    function getOwner() external view returns(address) {\r\n        return owner;\r\n    }\r\n\r\n    function isUser(address payable walletAddress) public view returns (bool) {\r\n        return users[walletAddress].walletAddress != address(0);\r\n    }\r\n\r\n    function addUser(address payable walletAddress, string memory name, string memory lastname) public {\r\n        require(!isUser(walletAddress), \"User already exists!\");\r\n        users[walletAddress] = User(walletAddress, name, lastname, 0, 0, 0, 0, 0);\r\n        emit UserAdded(walletAddress, name, lastname);\r\n    }\r\n\r\n    function getUser(address payable walletAddress) public view returns (User memory) {\r\n        require(isUser(walletAddress), \"User does not exist!\");\r\n        return users[walletAddress];\r\n    }\r\n\r\n    function addCar(uint id, string memory name, string memory url, uint rent, uint sale) public onlyOwner {\r\n        require(cars[id].id == 0, \"Car with this id already exists!\");\r\n        cars[id] = Car(id, name, url, true, rent, sale);\r\n        carIds.push(id);\r\n        emit CarAdded(id, name, url, rent, sale);\r\n    }\r\n\r\n    function activateCar(uint id) public onlyOwner {\r\n        require(cars[id].id != 0, \"Car does not exist!\");\r\n        cars[id].availableForRent = true;\r\n        emit CarActivated(id);\r\n    }\r\n\r\n    function deactivateCar(uint id) public onlyOwner {\r\n        require(cars[id].id != 0, \"Car does not exist!\");\r\n        cars[id].availableForRent = false;\r\n        emit CarDeactivated(id);\r\n    }\r\n\r\n    function isCarActive(uint id) public view returns (bool) {\r\n        require(cars[id].id != 0, \"Car does not exist!\");\r\n        return cars[id].availableForRent;\r\n    }\r\n\r\n    function deposit(address payable walletAddress) public payable {\r\n        require(isUser(walletAddress), \"User does not exist!\");\r\n        users[walletAddress].balance += msg.value;\r\n    }\r\n\r\n\r\n    function checkOut(address payable walletAddress, uint id) public {\r\n        require(isUser(walletAddress), \"User does not exist!\");\r\n        require(isCarActive(id), \"Car is not available for rent!\");\r\n        require(users[walletAddress].rentedCarId == 0, \"User has already rented a car!\");\r\n        require(users[walletAddress].debt == 0, \"User has an outstanding debt!\");\r\n\r\n        users[walletAddress].rentedCarId = id;\r\n        users[walletAddress].start = block.timestamp;\r\n        cars[id].availableForRent = false;\r\n        emit CheckedOut(walletAddress, id, block.timestamp);\r\n    }\r\n\r\n    function checkIn(address payable walletAddress) public {\r\n        require(isUser(walletAddress), \"User does not exist!\");\r\n        uint rentedCarId = users[walletAddress].rentedCarId;\r\n        require(rentedCarId != 0, \"User has not rented a car!\");\r\n\r\n        users[walletAddress].end = block.timestamp;\r\n        users[walletAddress].debt += calculateDebt(walletAddress);\r\n\r\n        users[walletAddress].rentedCarId = 0;\r\n        uint start = users[walletAddress].start;\r\n        users[walletAddress].start = 0;\r\n        users[walletAddress].end = 0;\r\n        cars[rentedCarId].availableForRent = true;\r\n        emit CheckedIn(walletAddress, rentedCarId, start, block.timestamp);\r\n    }\r\n\r\n    function calculateDebt(address payable walletAddress) internal view returns (uint) {\r\n        uint rentedCarId = users[walletAddress].rentedCarId;\r\n        uint rentFee = cars[rentedCarId].rentFee;\r\n        uint usedMinutes = (users[walletAddress].end - users[walletAddress].start) / 60;\r\n\r\n        return usedMinutes * rentFee;\r\n    }\r\n\r\n    function makePayment(address payable walletAddress) public {\r\n        require(isUser(walletAddress), \"User does not exist!\");\r\n        uint debt = users[walletAddress].debt;\r\n        uint balance = users[walletAddress].balance;\r\n\r\n        require(debt > 0, \"User has no debt!\");\r\n        require(balance >= debt, \"User has insufficient balance!\");\r\n\r\n        users[walletAddress].balance -= debt;\r\n        users[walletAddress].debt = 0;\r\n        emit PaymentMade(walletAddress, debt);\r\n    }\r\n\r\n    function getCarIds() public view returns (uint[] memory) {\r\n        return carIds;\r\n    }\r\n\r\n    function getCar(uint id) public view returns (Car memory) {\r\n        require(cars[id].id != 0, \"Car does not exist!\");\r\n        return cars[id];\r\n    }\r\n\r\n    function getUserDebt(address payable walletAddress) public view returns (uint) {\r\n        require(isUser(walletAddress), \"User does not exist!\");\r\n        return users[walletAddress].debt;\r\n    }\r\n\r\n    function getUserBalance(address payable walletAddress) public view returns (uint) {\r\n        require(isUser(walletAddress), \"User does not exist!\");\r\n        return users[walletAddress].balance;\r\n    }\r\n}",
  "sourcePath": "C:\\Users\\arday\\OneDrive\\Masast\\car-rental-dapp-backend\\contracts\\bsc\\RentalPlatform.sol",
  "compiler": {
    "name": "solc",
    "version": "0.8.7+commit.e28d00a7.Emscripten.clang"
  },
  "schemaVersion": "3.4.13",
  "updatedAt": "2023-03-28T04:02:49.755Z",
  "devdoc": {
    "kind": "dev",
    "methods": {},
    "version": 1
  },
  "userdoc": {
    "kind": "user",
    "methods": {},
    "version": 1
  },
  "db": {
    "callBytecode": {
      "id": "0x098e190b4ee605d927cdd37bf49fef1ae5cd700e2a273236b658f37f28c4c262"
    },
    "createBytecode": {
      "id": "0x1b859dd66cd813d5407f748b6489959160a57094a056cf93611a58b02c400f00"
    },
    "contract": {
      "id": "0x8fc911ba550ff94f4e14f314933ac41d3ac6d5163f49e826d19a2e80b6dd33c8"
    }
  }
}